:020000040800F2
:10000000C0070020DD010008E5010008E701000845
:10001000E9010008EB010008ED0100080000000004
:10002000000000000000000000000000EF010008D8
:10003000F101000800000000F3010008F5010008CC
:10004000F7010008F7010008F7010008F7010008B0
:10005000F7010008F7010008F7010008F7010008A0
:10006000F7010008F7010008F7010008F701000890
:10007000F7010008F7010008F7010008F701000880
:10008000F7010008F7010008F7010008F701000870
:10009000F7010008F7010008F7010008F50700085C
:1000A000F7010008F7010008F7010008F701000850
:1000B000F7010008C5100008F7010008F701000863
:1000C000F7010008F7010008F7010008F701000830
:1000D000F701000871160008BD160008F7010008B6
:1000E000F7010008F7010008F7010008F701000810
:1000F000F7010008F7010008F7010008F701000800
:10010000F7010008F7010008F7010008F7010008EF
:10011000F7010008F7010008F7010008F7010008DF
:10012000F7010008F7010008F7010008F7010008CF
:1001300000F002F800F042F80AA090E8000C8244B7
:100140008344AAF10107DA4501D100F037F8AFF294
:10015000090EBAE80F0013F0010F18BFFB1A43F0A5
:1001600001031847941C0000B41C0000103A24BF7F
:1001700078C878C1FAD8520724BF30C830C144BF0C
:1001800004680C607047000000230024002500264E
:10019000103A28BF78C1FBD8520728BF30C148BFEA
:1001A0000B607047642900F0B980732900F0D78193
:1001B000002070471FB51FBD10B510BD00F0EAF953
:1001C0001146FFF7F7FF01F0D1FC00F008FA03B485
:1001D000FFF7F2FF03BC01F03FFC00000948804735
:1001E00009480047FEE7FEE7FEE7FEE7FEE7FEE719
:1001F000FEE7FEE7FEE7FEE704480549054A064B31
:10020000704700001D0E000831010008C0010020E9
:10021000C0070020C0030020C0030020704700007A
:100220000FB4044910B503AA029800F09DF910BC60
:100230005DF814FB700000200FB41CB5074B06AA34
:100240007B4469460090059800F05FF900206946FC
:1002500000F06EF91CBC5DF814FB0000ED0200001C
:100260002DE9F0410E460446002020622046E16858
:10027000884730B3252805D0D4E901219047206A6A
:10028000401CF2E7E168204600278847050018D0A7
:10029000A5F14100192802D820354FF400673246F5
:1002A000294620462760FFF77DFF40B1012804D092
:1002B000F61D26F007060836D8E7361DD6E728468D
:1002C000DAE7206ABDE8F08170B50C460546012AE0
:1002D00005D02878800600D5EA69002302E00123D2
:1002E00005E05B1C934202D2E05C0028F9D1A869CA
:1002F000E618C01AA861286A184428622846AFF395
:10030000008004E0D5E9012114F8010B9047B442C4
:10031000F8D32846AFF3008070BD00002DE9F0410E
:100320000646002410687529314616A510D0AFF393
:100330000080002802DA404213A507E031688A07EE
:1003400001D512A502E0490704D511A5012401E059
:10035000AFF3008000210A2206F1240709E0B0FB78
:10036000F2FCB0FBF2F302FB1C003030785418466C
:10037000491C0028F3D123462A463046BDE8F04107
:1003800000F064B8000000002D0000002B00000009
:100390002000000030B505460B462A4613F8014BF5
:1003A00012F8010B08B1A042F8D01CB1002802D00D
:1003B0006D1CF1E7284630BD10B5431C02E010F873
:1003C000011B71B18107FAD14FF0013202C88C1ABA
:1003D0008C4314EAC211F9D0C01A0A0603D0C01E19
:1003E00010BDC01A10BD0A0401D0801E10BD090244
:1003F000FCD0401E10BD4FF0000200B513469446DD
:100400009646203922BFA0E80C50A0E80C50B1F16C
:100410002001BFF4F7AF090728BFA0E80C5048BF80
:100420000CC05DF804EB890028BF40F8042B08BF1E
:10043000704748BF20F8022B11F0804F18BF00F81A
:10044000012B704770477047704770472DE9F047A0
:100450000D4699469246044600F124080168880634
:1004600004D5E06921F01001216000E00120A842DC
:1004700001DD471B00E00027A1697A1902EB0900A2
:10048000081AA0612078C00602D42046AFF300808D
:10049000002608E0D4E901211AF806009047206AF6
:1004A000401C761C20624E45F4DB2078C0060AD53D
:1004B0002046AFF3008006E0D4E9012130209047C8
:1004C000206A401C2062381EA7F10107F4DC07E017
:1004D000D4E9012118F805009047206A401C2062E9
:1004E000281EA5F10105F3DC2046AFF3008020783B
:1004F000000602D50220BDE8F0870120FBE70000DE
:1005000001694A1C02610878704700B58FB0CDE9D7
:1005100001310021059105497944CDE903101146C7
:100520006846FFF79DFE0FB000BD0000E5FFFFFF2E
:100530000A6802F8010B0A60704710B5436913B1ED
:10054000AFF3008001E0FFF7BFFE012010BD12787D
:1005500000F124010A7000224A700122EDE71168BF
:100560004FF0FF32E9E70000074B70B50D467B44C2
:10057000FFF7CBFF0446284600F008F810B14FF013
:10058000FF3070BD204670BDBB150000007B00F041
:1005900080007047754600F02BF8AE4605006946AE
:1005A000534620F00700854618B020B5FFF724FE1B
:1005B000BDE820404FF000064FF000074FF0000864
:1005C0004FF0000B21F00701AC46ACE8C009ACE8E5
:1005D000C009ACE8C009ACE8C0098D46704710B549
:1005E0000446AFF300802046BDE81040FFF7EFBDA2
:1005F000004870475C0100202DE9F84307460D468E
:1006000016461C46DDF820800121404600F004FB20
:10061000ADF8006018208DF8030003208DF802006B
:100620006946384600F092F945EA0400ADF800004A
:1006300010208DF803006946384600F087F92146FE
:10064000384600F017FABDE8F8830000002006E005
:100650000021064A1154064A1154411CC8B24028D0
:10066000F6DB0021034A116070470000AC00002057
:10067000EC0000207800002010B506E02FA0FFF766
:10068000CFFD4FF4FA7001F00BFA2EA000F0F4F950
:100690000028F3D0FFF7DAFF06E02BA0FFF7C0FD3C
:1006A0004FF4FA7001F0FCF926A000F0E5F90446D9
:1006B00029A000F0E1F90443002CEED0FFF7C6FFBB
:1006C00006E028A0FFF7ACFD4FF4FA6001F0E8F96E
:1006D0001CA000F0D1F90028F3D0FFF7B7FF06E027
:1006E0002AA0FFF79DFD40F6B83001F0D9F915A01A
:1006F00000F0C2F90028F3D0FFF7A8FF06E027A01A
:10070000FFF78EFD40F6B83001F0CAF90DA000F0F9
:10071000B3F90028F3D0FFF799FF06E025A0FFF713
:100720007FFD40F6B83001F0BBF906A000F0A4F957
:100730000028F3D0FFF78AFF10BD000041540D0AD6
:10074000000000004F4B000041542B43574D4F44D5
:10075000453D310D0A0000006E6F206368616E67D1
:100760006500000041542B43574A41503D225450EC
:100770002D4C494E4B5F45413634222C22626A751E
:100780007430373132220D0A0000000041542B43EF
:1007900049504D55583D310D0A00000041542B433E
:1007A00049505345525645523D312C393039300D60
:1007B0000A00000041542B4349505354415F4445C3
:1007C000463D223139322E3136382E332E323137F2
:1007D000222C223139322E3136382E332E31222C32
:1007E000223235352E3235352E3235352E30220D2A
:1007F0000A00000010B54FF4807000F029F8A8B18D
:100800000A2001F04DF94FF480710B4800F029F9EE
:1008100060B980200949086001220021084800F0E1
:100820008FFC01220221064800F0B9FC4FF48070D1
:1008300000F008F810BD000000100140140C014049
:10084000000800400149086070470000140401409E
:10085000014600200022074B1B6803EA0102054BFA
:1008600014331B680B4013B10AB1012000E00020D3
:100870007047000000040140002123498279002ACA
:100880003AD00A46126803689A430B461A600A1D5A
:10089000126803689A430B1D1A60027911440A68B2
:1008A00003681A430A60184A0832126803689A43B8
:1008B000154B08331A601A1D126803689A43124BCD
:1008C0000C331A604279102A0ED11A1F126803687D
:1008D0001A430D4B08331A601A1D126803681A4335
:1008E000094B0C331A600DE00749427911440A683C
:1008F00003681A430A6005E0027911440A68036834
:100900009A430A60704700000004014030B500229D
:100910008B071C0F0F2303FA04F20B4B8C1053F8B8
:1009200024309343084C8D1044F8253023468C1016
:1009300053F824308C07240F00FA04F42343024CAC
:100940008D1044F8253030BD080001402DE9F041FC
:10095000024600250026002000230024002791F8ED
:1009600003C00CF00F0591F803C00CF0100CBCF1A3
:10097000000F03D091F802C04CEA050591F800C0C1
:10098000BCF1000F31D0146800202BE04FF0010CB7
:100990000CFA00F3B1F800C00CEA03069E4220D125
:1009A00083004FF00F0C0CFA03F7BC4305FA03FC6D
:1009B0004CEA040491F803C0BCF1280F06D14FF0B3
:1009C000010C0CFA00FCC2F814C00AE091F803C054
:1009D000BCF1480F05D14FF0010C0CFA00FCC2F835
:1009E00010C0401C0828D1D31460B1F800C0BCF17D
:1009F000FF0F34DD546800202EE000F1080C4FF0AA
:100A0000010808FA0CF3B1F800C00CEA03069E4294
:100A100021D183004FF00F0C0CFA03F7BC4305FA09
:100A200003FC4CEA040491F803C0BCF1280F05D183
:100A300000F1080C08FA0CF8C2F8148091F803C011
:100A4000BCF1480F07D100F1080C4FF0010808FA7B
:100A50000CF8C2F81080401C0828CED35460BDE8C2
:100A6000F0810246002093680B400BB1012000E0AA
:100A7000002070470161704710B5044621460448C4
:100A8000FFF788FC08B1012010BD0020FCE7000042
:100A9000EC0000201FB50121112000F0BDF8482016
:100AA0008DF803004FF48070ADF8000069461248DD
:100AB000FFF74CFF08210220FFF728FF4FF480705A
:100AC000029001208DF80E0000208DF80C000C2003
:100AD0008DF80D0002A8FFF7CFFE17208DF8040057
:100AE00001208DF8070002208DF805008DF8060022
:100AF00001A800F03FF81FBD0010014008B5042018
:100B000010234022002100901648FFF775FD0420B5
:100B100020238022002100901248FFF76DFD08205D
:100B200080234022202100900F48FFF765FD40F60A
:100B3000FA2000F0E7FC40F6FA2000F053FD802098
:100B400009491031086000221146084800F0F8FAFF
:100B50000121074800F006FB0121044800F002FBD8
:100B600008BD000000080140000C014000080040E2
:100B70000004004070B5002100230F22C47804B3A4
:100B8000154C246804F4E064C4F5E064210AC1F162
:100B90000403CA40447804FA03F1847814402143E2
:100BA00009010E4C0678A155047804F01F050124B4
:100BB000AC4005786D11AD0005F1E025C5F80041A8
:100BC00009E0047804F01F050124AC40044D0678C8
:100BD000761145F8264070BD0CED00E000E400E021
:100BE00080E100E002490143024A116070470000C1
:100BF0000000FA050CED00E029B1064AD269024373
:100C0000044BDA6104E0034AD2698243014BDA61A2
:100C1000704700000010024029B1064A9269024361
:100C2000044B9A6104E0034A92698243014B9A6142
:100C3000704700000010024030B50021002200245F
:100C400000232D4D6D6805F00C0121B1042905D05C
:100C5000082923D105E0294D056022E0274D0560D4
:100C60001FE0254D6D6805F47012234D6D6805F485
:100C70008034022505EB92421CB9214D5543056095
:100C80000BE01D4D6D6805F400351DB11C4D55433D
:100C9000056002E0194D5543056002E0174D0560FF
:100CA00000BF00BF144D6D6805F0F0010909154D36
:100CB0006B5C0568DD4045600F4D6D6805F4E061D3
:100CC000090A104D6B5C4568DD4085600A4D6D6812
:100CD00005F46051C90A0B4D6B5C4568DD40C56089
:100CE000054D6D6805F44041890B074D6B5CC56887
:100CF000B5FBF3F5056130BD0010024000127A002B
:100D000000093D00810000209100002010B500F096
:100D100001F810BD0CB50020019000903348006828
:100D200040F480303149086000BF3048006800F46A
:100D3000003000900198401C0190009818B901986B
:100D4000B0F5A06FF1D12948006800F4003010B16F
:100D50000120009001E0002000900098012843D17C
:100D60002348006840F010002149086008460068E8
:100D700020F0030008600846006840F002000860A8
:100D80001A48406819494860084640684860084663
:100D9000406840F4806048600846406820F47C1059
:100DA00048600846406840F4E8104860084600681B
:100DB00040F08070086000BF0C48006800F00070D0
:100DC0000028F9D00948406820F00300074948602E
:100DD0000846406840F00200486000BF0348406891
:100DE00000F00C000828F9D10CBD000000100240F2
:100DF00000200240042808D14FF0E021096941F0A9
:100E000004014FF0E022116107E04FF0E021096991
:100E100021F004014FF0E0221161704710B5134832
:100E2000006840F001001149086008464068104918
:100E300008400E494860084600680E4908400B49C2
:100E400008600846006820F4802008600846406872
:100E500020F4FE0048604FF41F008860FFF756FF43
:100E60004FF000600449086010BD0000001002400F
:100E70000000FFF8FFFFF6FE08ED00E010B50446A5
:100E80000E2C78D2DFE804F0071B2B3B4F637883EE
:100E900091A5B9CDD8E610208649086000221146F8
:100EA000854800F04DF94FF4805084490860801067
:100EB000086001220821804800F042F9F8E04FF470
:100EC00080607E49091F0860002208217A4800F0EE
:100ED00037F94FF480707949091F0860E8E04FF452
:100EE0008070764908600001091F08608010091DA4
:100EF000086001220821704800F022F9D8E04FF480
:100F000080606E49091F0860002208216A4800F0CD
:100F100017F94FF400606949086001220C21664806
:100F200000F00EF9C4E04FF400606449091F086046
:100F300000220C21604800F003F910205D49091DD2
:100F40000860012200215C4800F0FAF8B0E01020AF
:100F50005849086000221146574800F0F1F84FF454
:100F600080505649086080100860012208215248CC
:100F700000F0E6F89CE081E04FF480604F49091FE3
:100F80000860002208214C4800F0DAF890E04FF4A5
:100F900080504A49091F08608010091D086001221D
:100FA0000821454800F0CCF882E04FF40060434946
:100FB000086001220C21404800F0C2F84FF4806024
:100FC0003E49091F0860002208213B4800F0B8F89C
:100FD0006EE04FF400603949091F086000220C21BF
:100FE000354800F0ADF810203249091D0860012293
:100FF0000021314800F0A4F85AE010202D49086083
:10100000002211462C4800F09BF84FF480502B49E9
:1010100008608010086001220821274800F090F83D
:1010200046E04FF480602549091F0860002208212E
:10103000214800F085F83BE04FF480501F49091F1C
:1010400008608010091D0860012208211A4800F07C
:1010500077F82DE04FF480601849091F08600022DE
:101060000821154800F06CF810201249091D08608D
:1010700001220021104800F063F819E010200D490A
:101080000860002211460C4800F05AF800210A4876
:1010900000F068F880200949086001220021084812
:1010A00000F04EF801220221054800F078F800BF58
:1010B00000BF10BD1008014000040040140C0140A6
:1010C0000008004010B50121184800F057F858B347
:1010D0000121164800F043F815480068401C1449E7
:1010E00008600846006840F21F31884207D100209E
:1010F0000F4908600F480088401C0E4908800E48C0
:101100000E49096850F821000A49098888420BD124
:1011100000200849088009480068FFF7AFFE07482B
:101120000068401C0549086010BD00000004004034
:101130006400002068000020280000206C000020CF
:1011400030B5002301248C40A3B2048C9C4304845A
:10115000048C02FA01F5ADB22C43048430BDCA43BD
:101160000282704721B1028842F00102028004E04D
:1011700002884FF6FE731A400280704730B502466F
:10118000002000230024158A05EA0103958905EA59
:10119000010413B10CB1012000E0002030BD1AB1F0
:1011A00083890B43838102E083898B43838170476A
:1011B00070B5002400220023058C4FF6FE763540E2
:1011C0000584028C8388048B4FF68F752C40B51EE6
:1011D0002C400D882C43751E2A400D892A434D88CA
:1011E0002A43144DA8420BD0134DA84208D0134DEA
:1011F000A84205D0124DA84202D0124DA84213D1E8
:101200004FF6F7752A404D892A434FF6FB752A4061
:101210008D882A434FF6FF652B404FF6FF552B4034
:101220008D892B43CD892B4383800483CD8885868C
:10123000028470BD002C0140003401400040014098
:1012400000440140004801400A460021018B4FF64E
:10125000F7731940114301837047000070B50024F3
:1012600000220023058C4FF6EF7635400584028C72
:101270008388048B48F6FF752C404FF6FF452C40C1
:101280000D884FF6FF7606EA05252C434FF6DF75ED
:101290002A400D8906EA05152A434D8806EA0515F8
:1012A0002A43154DA84202D0144DA8421DD14FF635
:1012B0007F752A404D894FF6FF7606EA05152A43C9
:1012C0004FF6BF752A408D8806EA05152A434FF66A
:1012D000FF352B404FF2FF752B408D8906EA8505BF
:1012E0002B43CD8906EA85052B4383800483CD8873
:1012F0000587028470BD0000002C014000340140CD
:101300000A460021018B4FF2FF7319404FF6FF731D
:1013100003EA0223194301837047000070B50024DB
:1013200000220023058C4FF6FF6635400584028CB1
:101330008388848B4FF68F752C404FF6FC752C40BC
:101340000D882C434FF6FF552A400D894FF6FF7646
:1013500006EA05252A434D8806EA05252A43154D48
:10136000A84202D0144DA8421DD14FF2FF752A4069
:101370004D894FF6FF7606EA05252A434FF6FF35DD
:101380002A408D8806EA05252A434EF6FF752B4034
:101390004DF6FF752B408D8906EA05152B43CD8947
:1013A00006EA05152B4383808483CD8885870284D4
:1013B00070BD0000002C0140003401400A460021AD
:1013C000818B4FF6F77319401143818370470000FA
:1013D00070B5002200230024058C4EF6FF763540C0
:1013E0000584038C8488828B48F6FF752A404FF66B
:1013F000FF452A400D884FF6FF7606EA05252A4369
:101400004DF6FF752B400D8906EA05352B434D88B7
:1014100006EA05352B430B4DA84202D00A4DA842DF
:1014200008D14BF6FF752C408D894FF6FF7606EA02
:1014300085152C4384808283CD88A0F84050038496
:1014400070BD0000002C01400034014081867047CF
:101450000187704781877047A0F8401070470000EF
:10146000002202881D4B98420ED01D4B98420BD093
:10147000B0F1804F08D01B4B984205D01A4B9842D0
:1014800002D01A4B984204D14FF68F731A404B8802
:101490001A43174B984207D0164B984204D04FF688
:1014A000FF431A40CB881A4302808B8883850B88C0
:1014B00003850A4B98420BD0094B984208D00E4B3B
:1014C000984205D00D4B984202D00D4B984201D165
:1014D0000B7A03860123838270470000002C0140B1
:1014E000003401400004004000080040000C0040AF
:1014F0000010004000140040004001400044014042
:101500000048014010B588B0044601210220FFF7D1
:1015100073FB01210846FFF77FFBA0B2ADF818006E
:101520000720ADF814000020ADF81A00ADF8160041
:1015300005A92B48FFF794FF1D208DF8000000201F
:101540008DF8010001208DF802008DF80300684637
:10155000FFF710FB6020ADF804000120ADF8060095
:101560000020ADF80C0001A91D48FFF721FE01A9DC
:101570001B48FFF773FE01A91948FFF7CFFE01A929
:101580001748FFF725FF08211548FFF75DFE0821E2
:101590001348FFF7B5FE08211148FFF70FFF4FF47E
:1015A0007A710F48FFF752FF4FF47A710C48FFF73A
:1015B0004FFF4FF47A710A48FFF74CFF4FF47A71EE
:1015C0000748FFF749FF002208210548FFF7B8FD4B
:1015D00000220C210248FFF7B3FD08B010BD000047
:1015E0000004004010B588B0044601210420FFF734
:1015F00003FBA0B2ADF818000020ADF81600ADF85E
:101600001A000F20ADF8140005A91748FFF728FFAE
:101610001E208DF8000000208DF8010002208DF8BA
:10162000020001208DF803006846FFF7A3FA60204E
:10163000ADF804000120ADF806000020ADF80C0064
:1016400001A90948FFF7B4FD80200849086001227C
:1016500000210548FFF774FD4FF47A710248FFF747
:10166000F5FE08B010BD000000080040140C014059
:1016700010B540F225510E4800F0DFF8B8B10C4823
:1016800000F096F9C4B20B480B49096844540A4863
:101690000068401C0849086008460068402801DDD1
:1016A0000020086040F22551014800F0ABF810BD61
:1016B00000380140EC0000207800002010B540F216
:1016C0002551484800F0B9F800286FD0454800F08F
:1016D0006FF9C4B24448007848B9AA2C03D101205C
:1016E0004149087078E000203F49087074E03E48A6
:1016F0000078012805D13D48047002203A4908705D
:101700006AE039480078022866D138480078012814
:1017100004D002281FD0032859D13CE03448007877
:1017200038B93448047032480078401C3049087099
:1017300010E02F48007801280CD12E48007844EAA8
:1017400000202D498860012008710020264908707A
:10175000274908703FE02648007838B925480470CA
:1017600023480078401C2249087013E02048007884
:1017700001280FD11F48007844EA00201F498860E3
:101780000846408808B901200871002016490870F1
:10179000174908701FE01648007840B915480470D2
:1017A00013480078401C124908700FE019E01048F7
:1017B000007801280AD10F48007844EA0020104937
:1017C00088600020084908700949087003E000207B
:1017D0000549087000BF00BF40F22551014800F0E4
:1017E00011F810BD004400407D0000207F00002063
:1017F0007E000020800000202C0100203C01002001
:101800004C01002010B50022002340F66A14A142CA
:1018100000D100BF0A1201249440A3B2DC4304802B
:1018200010BD21B1828942F40052828104E0828994
:101830004DF6FF731A408281704770B5024600244E
:1018400000230025002040F66A16B14200D100BFF7
:10185000C1F3421501F01F03012606FA03F3012D1F
:1018600002D19689334006E0022D02D1168A334018
:1018700001E0968A33400C12012606FA04F4168819
:10188000344013B10CB1012000E0002070BDF0B570
:101890000346002400260025002040F66A17B942BE
:1018A00000D100BF1846C1F3421401F01F06012702
:1018B00007FA06F5012C01D10C3004E0022C01D10D
:1018C000103000E014301AB107682F43076002E0BF
:1018D0000768AF430760F0BD2DE9F04786B00546C5
:1018E0000E460024A24600BFA1460027B08900B1E1
:1018F00000BF2F462C8A4CF6FF700440F08804434A
:101900002C82AC894EF6F3100440B088318908432C
:10191000718908430443AC81AC8A4FF6FF40044010
:10192000B0890443AC8201A8FFF786F91F488742BB
:1019300002D1DDF810A001E0DDF80CA0A88900F4C8
:10194000004040B10AEBCA0000EB0A1031684900C0
:10195000B0FBF1F807E00AEBCA0000EB0A103168AF
:101960008900B0FBF1F86420B8FBF0F00401200915
:10197000642101FB1089A88900F4004040B13220A5
:1019800000EBC900B0FBF1F000F00700044308E0F1
:10199000322000EB09106421B0FBF1F000F00F00E1
:1019A00004432C8106B0BDE8F087000000380140F8
:1019B00001468888C0F308007047000010B586B063
:1019C000044601214804FFF717F90420ADF814007C
:1019D00003208DF8160018208DF8170005A91C4863
:1019E000FEF7B4FF0820ADF8140004208DF81700AE
:1019F00005A91748FEF7AAFF26208DF8000002204F
:101A00008DF8010003208DF8020001208DF80300FD
:101A10006846FFF7AFF801940020ADF80800ADF874
:101A20000A00ADF80C00ADF810000C20ADF80E0067
:101A300001A90848FFF750FF012240F2255105484F
:101A4000FFF725FF01210348FFF7EBFE06B010BDAD
:101A5000000801400044004000BF704710B56FF01F
:101A60000400FFF7C7F90A4800680A49B0FBF1F023
:101A7000094908700846007800EB4001C1EBC0102E
:101A80004FF6FF7101EAC0000449088010BD000054
:101A90009800002000127A00240000202600002078
:101AA0000146114A12884A434FF0E0235A6100224E
:101AB0009A611A46126942F001021A6100BF4FF0A2
:101AC000E022106900F001021AB100F48032002A0D
:101AD000F5D04FF0E022126922F001024FF0E0232E
:101AE0001A6100229A6170472600002070B50446F2
:101AF0002046FEF761FC0546294606A0FEF790FB4E
:101B00004FF4FA70FFF7CCFF214607A0FEF788FBE1
:101B100070BD000041542B43495053454E443D3065
:101B20002C25640D0A0000002573000000BF054A43
:101B3000128802F04002002AF9D0C2B2014B1B1DEC
:101B40001A807047003801400148806870470000E3
:101B50002C01002001488068704700003C010020F3
:101B600001488068704700004C010020B2B000249A
:101B7000FFF774FF4FF4A060FFF734F84FF4E13043
:101B800000F0EAF8FEF7BAFFFEF784FF40F2DC50FF
:101B9000FFF786FF802112A8FEF72DFC402102A846
:101BA000FEF729FCFEF768FD4FF4E130FFF706FF72
:101BB0008EE0FFF7C9FF47490860FFF7CBFF4649B2
:101BC0000860FFF7CDFF454908604248006841F2D0
:101BD0008831884208DD1020414908600022114602
:101BE0004048FFF7ADFA08E010203D49091D0860A4
:101BF000012200213B48FFF7A3FA3748006841F271
:101C00008831884207DD2020354908600022042100
:101C10003448FFF795FA20203149091D0860012258
:101C200004213048FFF78CFA2C48006841F28831D3
:101C3000884208DD80202C490860002211462B488C
:101C4000FFF77EFA08E080202749091D086001227D
:101C500000212648FFF774FA25A0FEF70DFF20B1FA
:101C6000012025490860FEF7F1FC24A0FEF704FFDF
:101C700020B1002020490860FEF7E8FC1E480068FB
:101C8000002825D0FEF7E2FC1448006800901248B6
:101C9000036810481BA1026812A8FEF7CDFA12A82B
:101CA000FFF724FF12A8FEF787FB0446224624A173
:101CB00002A8FEF7C1FA02A926A0FEF7B1FA322067
:101CC000FFF7EEFE12A923A0FEF7AAFAFEF7BEFC6C
:101CD0006FE70000180000201C00002020000020FA
:101CE0001008014000040040100C014000080040B2
:101CF000434F4E4E4543540010000020434C4F5379
:101D000045440000707265737375726531206E759D
:101D10006D203A25640D0A707265737375726532B1
:101D2000206E756D203A25640D0A707265737375A7
:101D3000726533206E756D203A25640D0A0000002F
:101D400041542B43495053454E443D302C25640D9E
:101D50000A0000002573000010B586B0044601217A
:101D600044F20400FEF758FF4FF40070ADF8140081
:101D700003208DF8160018208DF8170005A91C48BF
:101D8000FEF7E4FD4FF48060ADF8140004208DF8F8
:101D9000170005A91648FEF7D9FD25208DF800008B
:101DA00003208DF801008DF8020001208DF803005A
:101DB0006846FEF7DFFE01940020ADF80800ADF89C
:101DC0000A00ADF80C00ADF810000C20ADF80E00C4
:101DD00001A90848FFF780FD012240F2255105487E
:101DE000FFF755FD01210348FFF71BFD06B010BDAD
:101DF0000008014000380140181E000800000020C3
:101E0000AC0000006C010008C41E0008AC000020FB
:101E100014070000880100083200000032000000B2
:101E200000000000000000000000000000000000B2
:101E300000000000000000000000000000000000A2
:101E4000080000000A000000140000000A00000062
:101E50000C000000100000000A0000001400000048
:101E60000A00000006000000080000000A00000050
:101E7000140000000A0000000A000000000000003A
:101E80000000000000000000000000000000000052
:101E9000000000000000000000000000000102033C
:101EA00004010203040607080902040608000000F2
:101EB00000A24A0400000000000000000102030428
:041EC0000607080900
:0400000508000131BD
:00000001FF
