:020000040800F2
:1000000028070020D5010008DD010008DF010008F5
:10001000E1010008E3010008E5010008000000001C
:10002000000000000000000000000000E7010008E0
:10003000E901000800000000EB010008ED010008E4
:10004000EF010008EF010008EF010008EF010008D0
:10005000EF010008EF010008EF010008EF010008C0
:10006000EF010008EF010008EF010008EF010008B0
:10007000EF010008EF010008EF010008EF010008A0
:10008000EF010008EF010008EF010008EF01000890
:10009000EF010008EF010008EF010008E10400088B
:1000A000EF010008EF010008EF010008EF01000870
:1000B000EF010008810D0008EF010008EF010008C2
:1000C000EF010008EF010008EF010008EF01000850
:1000D000EF01000835130008D1130008EF010008F4
:1000E000EF010008EF010008EF010008EF01000830
:1000F000EF010008EF010008EF010008EF01000820
:10010000EF010008EF010008EF010008EF0100080F
:10011000EF010008EF010008EF010008EF010008FF
:10012000EF010008EF010008EF010008EF010008EF
:1001300000F002F800F03FF80AA090E8000C8244BA
:100140008344AAF10107DA4501D100F034F8AFF297
:10015000090EBAE80F0013F0010F18BFFB1A43F0A5
:10016000010318476818000088180000103A24BFDF
:1001700078C878C1FAD8520724BF30C830C144BF0C
:1001800004680C607047000000230024002500264E
:10019000103A28BF78C1FBD8520728BF30C148BFEA
:1001A0000B607047642900F07780002070471FB50E
:1001B0001FBD10B510BD00F037F91146FFF7F7FF6E
:1001C00001F03EFB00F055F903B4FFF7F2FF03BC6A
:1001D00001F0CCFA0948804709480047FEE7FEE7EE
:1001E000FEE7FEE7FEE7FEE7FEE7FEE7FEE7FEE7E7
:1001F00004480549054A064B70470000D90A000823
:1002000031010008280100202807002028030020D1
:1002100028030020704700000FB4044910B503AA5A
:10022000029800F0D3F810BC5DF814FB5C000020CD
:100230002DE9F0410E460446002020622046E16888
:10024000884730B3252805D0D4E901219047206A9A
:10025000401CF2E7E168204600278847050018D0D7
:10026000A5F14100192802D820354FF40067324625
:10027000294620462760FFF795FF40B1012804D0AA
:10028000F61D26F007060836D8E7361DD6E72846BD
:10029000DAE7206ABDE8F0812DE9F0410646002446
:1002A00010687529314616A510D0AFF300800028DC
:1002B00002DA404213A507E031688A0701D512A58A
:1002C00002E0490704D511A5012401E0AFF3008045
:1002D00000210A2206F1240709E0B0FBF2FCB0FB82
:1002E000F2F302FB1C00303078541846491C0028F9
:1002F000F3D123462A463046BDE8F04100F00CB861
:10030000000000002D0000002B0000002000000075
:1003100070477047704770472DE9F0470D46994682
:100320009246044600F124080168880604D5E06975
:1003300021F01001216000E00120A84201DD471BEF
:1003400000E00027A1697A1902EB0900081AA061F0
:100350002078C00602D42046AFF30080002608E0D3
:10036000D4E901211AF806009047206A401C761C47
:1003700020624E45F4DB2078C0060AD52046AFF354
:10038000008006E0D4E9012130209047206A401C1B
:100390002062381EA7F10107F4DC07E0D4E901214F
:1003A00018F805009047206A401C2062281EA5F11D
:1003B0000105F3DC2046AFF300802078000602D56B
:1003C0000220BDE8F0870120FBE70000074B70B575
:1003D0000D467B4400F011F80446284600F020F852
:1003E00010B14FF0FF3070BD204670BD2B140000DF
:1003F00001694A1C02610878704700B58FB0CDE9E9
:1004000001310021059105497944CDE903101146D8
:100410006846FFF70DFF0FB000BD0000E5FFFFFFCE
:10042000007B00F080007047754600F02BF8AE4668
:1004300005006946534620F00700854618B020B5F0
:10044000FFF7D6FEBDE820404FF000064FF0000752
:100450004FF000084FF0000B21F00701AC46ACE86C
:10046000C009ACE8C009ACE8C009ACE8C0098D46D9
:10047000704710B50446AFF300802046BDE8104039
:10048000FFF7A2BE00487047C40000202DE9F843E2
:1004900007460D4616461C46DDF8208001214046E1
:1004A00000F018FAADF8006018208DF80300032062
:1004B0008DF802006946384600F0BEF845EA0400AF
:1004C000ADF8000010208DF803006946384600F0B2
:1004D000B3F82146384600F043F9BDE8F883000040
:1004E00010B54FF4807000F029F8A8B10A2001F08F
:1004F00061F94FF480710B4800F029F960B9802050
:100500000949086001220021084800F077FC012217
:100510000221064800F0A1FC4FF4807000F008F8BA
:1005200010BD000000100140140C01400008004004
:100530000149086070470000140401400146002092
:100540000022074B1B6803EA0102054B14331B68AA
:100550000B4013B10AB1012000E0002070470000F9
:1005600000040140002123498279002A3AD00A463A
:10057000126803689A430B461A600A1D12680368E2
:100580009A430B1D1A60027911440A6803681A43E2
:100590000A60184A0832126803689A43154B0833F8
:1005A0001A601A1D126803689A43124B0C331A60C2
:1005B0004279102A0ED11A1F126803681A430D4B94
:1005C00008331A601A1D126803681A43094B0C336A
:1005D0001A600DE00749427911440A6803681A431A
:1005E0000A6005E0027911440A6803689A430A60C8
:1005F000704700000004014030B500228B071C0F3B
:100600000F2303FA04F20B4B8C1053F8243093435E
:10061000084C8D1044F8253023468C1053F82430B4
:100620008C07240F00FA04F42343024C8D1044F885
:10063000253030BD080001402DE9F041024600257B
:100640000026002000230024002791F803C00CF0AE
:100650000F0591F803C00CF0100CBCF1000F03D093
:1006600091F802C04CEA050591F800C0BCF1000FFA
:1006700031D0146800202BE04FF0010C0CFA00F38D
:10068000B1F800C00CEA03069E4220D183004FF06F
:100690000F0C0CFA03F7BC4305FA03FC4CEA040404
:1006A00091F803C0BCF1280F06D14FF0010C0CFAF1
:1006B00000FCC2F814C00AE091F803C0BCF1480F76
:1006C00005D14FF0010C0CFA00FCC2F810C0401C20
:1006D0000828D1D31460B1F800C0BCF1FF0F34DD9D
:1006E000546800202EE000F1080C4FF0010808FAD1
:1006F0000CF3B1F800C00CEA03069E4221D183003E
:100700004FF00F0C0CFA03F7BC4305FA03FC4CEA5C
:10071000040491F803C0BCF1280F05D100F1080CC6
:1007200008FA0CF8C2F8148091F803C0BCF1480F25
:1007300007D100F1080C4FF0010808FA0CF8C2F8D4
:100740001080401C0828CED35460BDE8F0810246DA
:10075000002093680B400BB1012000E0002070479F
:10076000016170471FB50121112000F0B3F8482046
:100770008DF803004FF48070ADF800006946124810
:10078000FFF75AFF08210220FFF736FF4FF4807071
:10079000029001208DF80E0000208DF80C000C2036
:1007A0008DF80D0002A8FFF7DDFE17208DF804007C
:1007B00001208DF8070002208DF805008DF8060055
:1007C00001A800F035F81FBD0010014008B5042055
:1007D00010234022002100901148FFF757FE04200B
:1007E00020238022002100900D48FFF74FFE0820B3
:1007F00080234022202100900A48FFF747FE40F660
:10080000FA2000F0DDFC40F6FA2000F04DFD012159
:10081000054800F005FB0121044800F001FB08BD7C
:1008200000080140000C01400004004000080040A6
:1008300070B5002100230F22C47804B3154C24683E
:1008400004F4E064C4F5E064210AC1F10403CA4081
:10085000447804FA03F184781440214309010E4CD2
:100860000678A155047804F01F050124AC400578F2
:100870006D11AD0005F1E025C5F8004109E00478EF
:1008800004F01F050124AC40044D0678761145F8AC
:10089000264070BD0CED00E000E400E080E100E0E7
:1008A00002490143024A1160704700000000FA0546
:1008B0000CED00E029B1064AD2690243044BDA612B
:1008C00004E0034AD2698243014BDA6170470000B9
:1008D0000010024029B1064A92690243044B9A6112
:1008E00004E0034A92698243014B9A617047000019
:1008F0000010024030B500210022002400232D4DBD
:100900006D6805F00C0121B1042905D0082923D117
:1009100005E0294D056022E0274D05601FE0254DCB
:100920006D6805F47012234D6D6805F4803402255E
:1009300005EB92421CB9214D554305600BE01D4D5E
:100940006D6805F400351DB11C4D5543056002E08E
:10095000194D5543056002E0174D056000BF00BF0B
:10096000144D6D6805F0F0010909154D6B5C0568C3
:10097000DD4045600F4D6D6805F4E061090A104DDA
:100980006B5C4568DD4085600A4D6D6805F460511B
:10099000C90A0B4D6B5C4568DD40C560054D6D684F
:1009A00005F44041890B074D6B5CC568B5FBF3F559
:1009B000056130BD0010024000127A0000093D00C0
:1009C0006B0000207B00002010B500F001F810BD86
:1009D0000CB50020019000903348006840F480304E
:1009E0003149086000BF3048006800F400300090D2
:1009F0000198401C0190009818B90198B0F5A06FBB
:100A0000F1D12948006800F4003010B101200090B5
:100A100001E0002000900098012843D1234800689D
:100A200040F01000214908600846006820F00300EB
:100A300008600846006840F0020008601A484068F4
:100A4000194948600846406848600846406840F4D4
:100A5000806048600846406820F47C104860084682
:100A6000406840F4E81048600846006840F0807034
:100A7000086000BF0C48006800F000700028F9D042
:100A80000948406820F0030007494860084640686C
:100A900040F00200486000BF0348406800F00C00CE
:100AA0000828F9D10CBD00000010024000200240CF
:100AB000042808D14FF0E021096941F004014FF00A
:100AC000E022116107E04FF0E021096921F0040103
:100AD0004FF0E0221161704710B51348006840F0F4
:100AE00001001149086008464068104908400E4955
:100AF0004860084600680E4908400B4908600846EF
:100B0000006820F4802008600846406820F4FE0059
:100B100048604FF41F008860FFF756FF4FF00060F9
:100B20000449086010BD0000001002400000FFF8FA
:100B3000FFFFF6FE08ED00E010B504460E2C78D25B
:100B4000DFE804F0071B2B3B4F63788391A5B9CDF9
:100B5000D8E610208649086000221146854800F03A
:100B60004DF94FF4805084490860801008600122DC
:100B70000821804800F042F9F8E04FF480607E4997
:100B8000091F0860002208217A4800F037F94FF465
:100B900080707949091F0860E8E04FF48070764959
:100BA00008600001091F08608010091D086001220B
:100BB0000821704800F022F9D8E04FF480606E49B7
:100BC000091F0860002208216A4800F017F94FF455
:100BD00000606949086001220C21664800F00EF9A6
:100BE000C4E04FF400606449091F086000220C2132
:100BF000604800F003F910205D49091D08600122DA
:100C000000215C4800F0FAF8B0E010205849086074
:100C100000221146574800F0F1F84FF48050564931
:100C200008608010086001220821524800F0E6F8B0
:100C30009CE081E04FF480604F49091F086000226A
:100C400008214C4800F0DAF890E04FF480504A490F
:100C5000091F08608010091D08600122082145480D
:100C600000F0CCF882E04FF40060434908600122B4
:100C70000C21404800F0C2F84FF480603E49091F43
:100C80000860002208213B4800F0B8F86EE04FF4FD
:100C900000603949091F086000220C21354800F026
:100CA000ADF810203249091D0860012200213148A9
:100CB00000F0A4F85AE010202D49086000221146E7
:100CC0002C4800F09BF84FF480502B4908608010AE
:100CD000086001220821274800F090F846E04FF410
:100CE00080602549091F086000220821214800F082
:100CF00085F83BE04FF480501F49091F08608010C1
:100D0000091D0860012208211A4800F077F82DE03B
:100D10004FF480601849091F086000220821154817
:100D200000F06CF810201249091D08600122002112
:100D3000104800F063F819E010200D490860002207
:100D400011460C4800F05AF800210A4800F068F8F3
:100D500080200949086001220021084800F04EF86F
:100D600001220221054800F078F800BF00BF10BD45
:100D70001008014000040040140C0140000800402D
:100D800010B50121184800F057F858B30121164852
:100D900000F043F815480068401C144908600846F4
:100DA000006840F21F31884207D100200F490860D7
:100DB0000F480088401C0E4908800E480E490968FB
:100DC00050F821000A49098888420BD100200849BF
:100DD000088009480068FFF7AFFE07480068401C1C
:100DE0000549086010BD00000004004050000020CC
:100DF00054000020140000205800002030B50023CB
:100E000001248C40A3B2048C9C430484048C02FA19
:100E100001F5ADB22C43048430BDCA430282704751
:100E200021B1028842F00102028004E002884FF6FC
:100E3000FE731A400280704730B50246002000233E
:100E40000024158A05EA0103958905EA010413B116
:100E50000CB1012000E0002030BD1AB183890B43A2
:100E6000838102E083898B438381704770B50024BE
:100E700000220023058C4FF6FE7635400584028C57
:100E80008388048B4FF68F752C40B51E2C400D883F
:100E90002C43751E2A400D892A434D882A43144D40
:100EA000A8420BD0134DA84208D0134DA84205D03C
:100EB000124DA84202D0124DA84213D14FF6F77539
:100EC0002A404D892A434FF6FB752A408D882A43D4
:100ED0004FF6FF652B404FF6FF552B408D892B4376
:100EE000CD892B4383800483CD888586028470BDA1
:100EF000002C01400034014000400140004401400A
:100F0000004801400A460021018B4FF6F773194053
:100F1000114301837047000070B5002400220023B4
:100F2000058C4FF6EF7635400584028C8388048B60
:100F300048F6FF752C404FF6FF452C400D884FF6C4
:100F4000FF7606EA05252C434FF6DF752A400D890A
:100F500006EA05152A434D8806EA05152A43154D6C
:100F6000A84202D0144DA8421DD14FF67F752A40E9
:100F70004D894FF6FF7606EA05152A434FF6BF75F1
:100F80002A408D8806EA05152A434FF6FF352B4087
:100F90004FF2FF752B408D8906EA85052B43CD89DD
:100FA00006EA85052B4383800483CD880587028468
:100FB00070BD0000002C0140003401400A460021B1
:100FC000018B4FF2FF7319404FF6FF7303EA0223C0
:100FD000194301837047000070B5002400220023EC
:100FE000058C4FF6FF6635400584028C8388848B20
:100FF0004FF68F752C404FF6FC752C400D882C4316
:101000004FF6FF552A400D894FF6FF7606EA052573
:101010002A434D8806EA05252A43154DA84202D0E9
:10102000144DA8421DD14FF2FF752A404D894FF64D
:10103000FF7606EA05252A434FF6FF352A408D88BC
:1010400006EA05252A434EF6FF752B404DF6FF753F
:101050002B408D8906EA05152B43CD8906EA051537
:101060002B4383808483CD888587028470BD0000F4
:10107000002C0140003401400A460021818B4FF6CC
:10108000F7731940114381837047000070B5002247
:1010900000230024058C4EF6FF7635400584038C32
:1010A0008488828B48F6FF752A404FF6FF452A4018
:1010B0000D884FF6FF7606EA05252A434DF6FF75A3
:1010C0002B400D8906EA05352B434D8806EA053588
:1010D0002B430B4DA84202D00A4DA84208D14BF633
:1010E000FF752C408D894FF6FF7606EA85152C4357
:1010F00084808283CD88A0F84050038470BD0000B6
:10110000002C014000340140818670470187704700
:1011100081877047A0F840107047000000220288C5
:101120001D4B98420ED01D4B98420BD0B0F1804F12
:1011300008D01B4B984205D01A4B984202D01A4B4C
:10114000984204D14FF68F731A404B881A43174BBD
:10115000984207D0164B984204D04FF6FF431A40EE
:10116000CB881A4302808B8883850B8803850A4BC2
:1011700098420BD0094B984208D00E4B984205D0AC
:101180000D4B984202D00D4B984201D10B7A038649
:101190000123838270470000002C0140003401408D
:1011A0000004004000080040000C00400010004017
:1011B000001400400040014000440140004801404C
:1011C00010B588B0044601210220FFF773FB01210E
:1011D0000846FFF77FFBA0B2ADF818000720ADF876
:1011E00014000020ADF81A00ADF8160005A92D482E
:1011F000FFF794FF1D208DF8000000208DF80100FE
:1012000001208DF802008DF803006846FFF710FBFF
:101210006020ADF804000120ADF806000020ADF814
:101220000C0001A91F48FFF721FE01A91D48FFF787
:1012300073FE01A91B48FFF7CFFE01A91948FFF76C
:1012400025FF08211748FFF75DFE08211548FFF725
:10125000B5FE08211348FFF70FFF4FF47A711148CC
:10126000FFF752FF4FF47A710E48FFF74FFF4FF42C
:101270007A710C48FFF74CFF4FF47A710948FFF779
:1012800049FF002204210748FFF7B8FD002208218A
:101290000448FFF7B3FD00220C210248FFF7AEFD22
:1012A00008B010BD0004004010B588B0044601210C
:1012B0000420FFF7FFFAA0B2ADF818000020ADF847
:1012C0001600ADF81A000F20ADF8140005A9174854
:1012D000FFF724FF1E208DF8000000208DF801008C
:1012E00002208DF8020001208DF803006846FFF708
:1012F0009FFA6020ADF804000120ADF80600002040
:10130000ADF80C0001A90948FFF7B0FD802008499D
:101310000860012200210548FFF770FD4FF47A7143
:101320000248FFF7F1FE08B010BD000000080040C1
:10133000140C014010B540F22551204800F007F987
:10134000002839D01D4800F0BDF9C4B21C4800780F
:1013500048B9FD2C03D101201949087027E000206D
:101360001749087023E016480078012813D1F4B11A
:10137000144815490978445413480078401C124910
:10138000087008460078022811D100200870022059
:101390000B4908700BE00A480078022807D1FE2CA0
:1013A00002D101200949087000200549087040F267
:1013B0002551024800F0B0F810BD0000003801408F
:1013C000650000206200002066000020640000200C
:1013D00010B540F22551484800F0B9F800286FD008
:1013E000454800F06FF9C4B24448007848B9AA2CC7
:1013F00003D101204149087078E000203F4908707E
:1014000074E03E480078012805D13D480470022070
:101410003A4908706AE039480078022866D13848AD
:101420000078012804D002281FD0032859D13CE0BD
:101430003448007838B93448047032480078401C89
:101440003049087010E02F48007801280CD12E4850
:10145000007844EA00202D4988600120887100202E
:1014600026490870274908703FE02648007838B9B7
:101470002548047023480078401C2249087013E076
:101480002048007801280FD11F48007844EA002046
:101490001F4988600846808808B9012088710020AB
:1014A00016490870174908701FE01648007840B9BF
:1014B0001548047013480078401C124908700FE06A
:1014C00019E01048007801280AD10F48007844EA52
:1014D00000201049886000200849087009490870F8
:1014E00003E000200549087000BF00BF40F225510D
:1014F000014800F011F810BD0044004067000020D2
:1015000069000020680000206A000020940000208C
:10151000A4000020B400002010B50022002340F6F3
:101520006A14A14200D100BF0A1201249440A3B260
:10153000DC43048010BD21B1828942F400528281D3
:1015400004E082894DF6FF731A408281704770B5BE
:101550000246002400230025002040F66A16B1420E
:1015600000D100BFC1F3421501F01F03012606FAA6
:1015700003F3012D02D19689334006E0022D02D1FA
:10158000168A334001E0968A33400C12012606FA8F
:1015900004F41688344013B10CB1012000E000209F
:1015A00070BDF0B50346002400260025002040F65B
:1015B0006A17B94200D100BF1846C1F3421401F0C6
:1015C0001F06012707FA06F5012C01D10C3004E0B3
:1015D000022C01D1103000E014301AB107682F43FB
:1015E000076002E00768AF430760F0BD2DE9F047F0
:1015F00086B005460E460024A24600BFA14600273D
:10160000B08900B100BF2F462C8A4CF6FF70044011
:10161000F08804432C82AC894EF6F3100440B08865
:1016200031890843718908430443AC81AC8A4FF681
:10163000FF400440B0890443AC8201A8FFF75AF987
:101640001F48874202D1DDF810A001E0DDF80CA0B0
:10165000A88900F4004040B10AEBCA0000EB0A1070
:1016600031684900B0FBF1F807E00AEBCA0000EB73
:101670000A1031688900B0FBF1F86420B8FBF0F083
:1016800004012009642101FB1089A88900F40040AD
:1016900040B1322000EBC900B0FBF1F000F00700D0
:1016A000044308E0322000EB09106421B0FBF1F0A4
:1016B00000F00F0004432C8106B0BDE8F087000065
:1016C0000038014001468888C0F3080070470000D8
:1016D00010B586B0044601214804FFF7EBF804205A
:1016E000ADF8140003208DF8160018208DF81700AF
:1016F00005A91C48FEF7A0FF0820ADF8140004203F
:101700008DF8170005A91748FEF796FF26208DF8DB
:10171000000002208DF8010003208DF80200012056
:101720008DF803006846FFF783F801940020ADF8B8
:101730000800ADF80A00ADF80C00ADF810000C2060
:10174000ADF80E0001A90848FFF750FF012240F252
:1017500025510548FFF725FF01210348FFF7EBFE60
:1017600006B010BD000801400044004000BF7047B3
:1017700010B56FF00400FFF79BF90A4800680A49AA
:10178000B0FBF1F0094908700846007800EB400111
:10179000C1EBC0104FF6FF7101EAC0000449088098
:1017A00010BD00008000002000127A001000002010
:1017B000120000200146114A12884A434FF0E023EC
:1017C0005A6100229A611A46126942F001021A61B6
:1017D00000BF4FF0E022106900F001021AB100F4DE
:1017E0008032002AF5D04FF0E022126922F0010287
:1017F0004FF0E0231A6100229A6170471200002026
:1018000000BF054A128802F04002002AF9D0C2B295
:10181000014B1B1D1A807047003801400148806849
:101820007047000094000020014880687047000065
:10183000A40000200148806870470000B400002028
:10184000FFF796FF4FF4A060FFF72AF8FEF7BEFF00
:10185000FEF788FF4FF4E13000F068F84FF4E13014
:10186000FFF736FF40F2DC50FFF7A4FF43E02248C9
:10187000016822A0FEF7D0FC1F48016823A0FEF7F4
:10188000CBFCFFF7CBFFB0F5805F08DD10202349CC
:101890000860002211462248FFF7B0FA08E0102045
:1018A0001E49091D0860012200211D48FFF7A6FA04
:1018B000FFF7BAFFB0F5805F02DD2020174908600E
:1018C00020201649091D0860FFF7B4FFB0F5805FBE
:1018D00008DD802013490860002211461248FFF7F6
:1018E0008DFA08E080200F49091D086001220021BF
:1018F0000D48FFF783FABAE7040000206E302E7619
:10190000616C3D2564FFFFFF000000006A302E7609
:10191000616C3D2564FFFFFF0000000010080140DE
:1019200000040040100C01400008004010B586B0D3
:101930000446012144F20400FEF7CCFF4FF400708E
:10194000ADF8140003208DF8160018208DF817004C
:1019500005A91C48FEF770FE4FF48060ADF8140036
:1019600004208DF8170005A91648FEF765FE25200E
:101970008DF8000003208DF801008DF80200012091
:101980008DF803006846FEF753FF01940020ADF880
:101990000800ADF80A00ADF80C00ADF810000C20FE
:1019A000ADF80E0001A90848FFF720FE012240F221
:1019B00025510548FFF7F5FD01210348FFF7BBFD61
:1019C00006B010BD0008014000380140EC190008C5
:1019D00000000020940000006C010008801A00083C
:1019E00094000020940600008801000832000000E6
:1019F00032000000000000000000000000000000B5
:101A0000080000000A000000140000000A000000A6
:101A10000C000000100000000A000000140000008C
:101A20000A00000006000000080000000A00000094
:101A3000140000000A0000000A000000000000007E
:101A40000000000000000000000000000000000096
:101A5000000000000000000000000001020304017B
:101A600002030406070809020406080000A24A044B
:101A7000000000000000000001020304060708093E
:0400000508000131BD
:00000001FF
