:0804E700B5DA00C2B7A3BA00A8
:0304FC00012400D8
:0704EF0075CED575CDC022CA
:1004D7008FCFE5CD30E7FB75CDC085CF24AF242284
:0F0492001204A11204A11204A11204A11204A1C8
:1004A100E4FDFCC3ED9FEC9E50070DBD00010C80E7
:0104B100F258
:0104B2002227
:0904C60074FFFFFE1204A17F0A7D
:0804CF008F993099FDC29922BA
:1004B3001201ABFF600C1204CF740129F9E43AFA7C
:0304C30080EE22A6
:030023000204F6DE
:0604F600309802C29832AA
:10041800E4F592F591759850758920758E40758B25
:10042800DC758DDCD28ED2ACD2AF1204EF1204612F
:100438007F081200261204C674FFFF1204A17F1859
:100448001200261204C674FFFF1204CA74FFFF12BA
:090458000492120492B2CD80D787
:10000300AE05C2912096FDEF540F4450FF1204D762
:0D001300E4FF1204D7AF061204D7D29122E9
:1003A400E4FBF51FF51EF51DF51CF523F522F521DB
:1003B400F520C2912096FD7FFC1204D7E4FF1204BD
:1003C400D77F011204D7C295E4FBAF1FAE1EAD1D4B
:1003D400AC1C78081203058F1F8E1E8D1D8C1CE427
:1003E400FF1204D7E48F23F522F521F520E51F45FC
:1003F40023F51FE51E4522F51EE51D4521F51DE5E6
:100404001C4520F51C0BBB03C1D291AF1FAE1EAD22
:030414001DAC1C00
:0104170022C2
:10046100C291D2927D06E4FF1200037D087F011242
:1004710000037D017F021200037D137F031200033D
:10048100E4FD7F041200037F0A7E001204A1D291D1
:010491002248
:020026008F0841
:100028007F007E007C00E4F50CF50BF50AF509ADC0
:10003800080F1200037FF01204D77FF31204D77F52
:10004800F41204D71203A41203A41203A47804120E
:1000580002F28F0C8E0B8D0A8C09E4FFFE7D08FCE2
:10006800AB0CAA0BA90AA809C31202E140030201BA
:100078005CE47FB87E03FDFCA8091201C48F108ED2
:100088000F8D0E8C0D7B007AE179F5780512024F01
:100098008F1174302511F51175122E7B007AE179D4
:1000A800F57805AF10AE0FAD0EAC0D12024FAC00D7
:1000B800AD01AE02AF037B807A9679987800120280
:1000C8004F8F1374302513F5137B807A96799878BF
:1000D80000AF10AE0FAD0EAC0D12024FAC00AD016B
:1000E800AE02AF037B407A42790F780012024F8F3D
:1000F8001474302514F5147B407A42790F7800AFD8
:1001080010AE0FAD0EAC0D12024FAC00AD01AE0239
:10011800AF037BA07A867901780012024F8F15749D
:10012800302515F5157BA07A8679017800AF10AED9
:100138000FAD0EAC0D12024FAC00AD01AE02AF0315
:10014800E47B107A27F9F812024F8F1674302516BF
:10015800F516801275113075122E7513307514301E
:10016800751530751630751756751820E508C4547E
:100178000FFF7005751B308005EF2430F51B7BFFE2
:100188007A0479E71204B3AF1B1204CF7A0479EA30
:100198001204B3E4FE74112EF8E6FF1204CF0EBE6B
:0201A8000AF358
:0101AA002232
:03000000020318E0
:0C031800787FE4F6D8FD75812402035FB5
:1001AB00BB010689828A83E0225002E722BBFE0252
:0901BB00E32289828A83E4932285
:1001C400E88FF0A4CC8BF0A42CFCE98EF0A42CFCDA
:1001D4008AF0EDA42CFCEA8EF0A4CDA8F08BF0A458
:1001E4002DCC3825F0FDE98FF0A42CCD35F0FCEBB7
:1001F4008EF0A4FEA9F0EB8FF0A4CFC5F02ECD397C
:0F020400FEE43CFCEAA42DCE35F0FDE43CFC22E8
:1002130075F008758200EF2FFFEE33FECD33CDCCA2
:1002230033CCC58233C5829BED9AEC99E582984025
:100233000CF582EE9BFEED9AFDEC99FC0FD5F0D602
:10024300E4CEFBE4CDFAE4CCF9A88222B800C1B92C
:100253000059BA002DEC8BF084CFCECDFCE5F0CB6A
:10026300F97818EF2FFFEE33FEED33FDEC33FCEBA3
:1002730033FB10D703994004EB99FB0FD8E5E4F95E
:10028300FA227818EF2FFFEE33FEED33FDEC33FC4B
:10029300C933C910D7059BE99A4007EC9BFCE99A3F
:1002A300F90FD8E0E4C9FAE4CCFB2275F010EF2F84
:1002B300FFEE33FEED33FDCC33CCC833C810D70784
:1002C3009BEC9AE899400AED9BFDEC9AFCE899F8BF
:0E02D3000FD5F0DAE4CDFBE4CCFAE4C8F92252
:1002E100EB9FF5F0EA9E42F0E99D42F0E89C45F073
:0102F10022EA
:1002F200E8600FECC313FCED13FDEE13FEEF13FFEA
:03030200D8F1220D
:10030500E8600FEFC333FFEE33FEED33FDEC33FC56
:03031500D8F122FA
:10032400020418E493A3F8E493A34003F68001F2D3
:1003340008DFF48029E493A3F85407240CC8C333DA
:10034400C4540F4420C8834004F456800146F6DFA9
:10035400E4800B01020408102040809004FCE47E39
:10036400019360BCA3FF543F30E509541FFEE4939E
:10037400A360010ECF54C025E060A840B8E493A365
:10038400FAE493A3F8E493A3C8C582C8CAC583CA90
:10039400F0A3C8C582C8CAC583CADFE9DEE780BE48
:0104FF0000FC
:00000001FF
